:020000040800F2
:10000000A01400205D020008F91900086F1600080E
:10001000F5190008FF1200083D220008000000004A
:10002000000000000000000000000000371E000873
:1000300059150008000000000D1C0008791F000879
:1000400077020008770200087702000877020008AC
:10005000770200087702000877020008770200089C
:10006000770200087702000877020008770200088C
:10007000770200087702000877020008770200087C
:1000800077020008770200082511000877020008AF
:10009000770200087702000877020008770200085C
:1000A000770200087702000877020008770200084C
:1000B000770200087702000877020008770200083C
:1000C000770200087702000877020008770200082C
:1000D000770200087702000877020008770200081C
:1000E000770200087702000877020008770200080C
:1000F00077020008770200087702000877020008FC
:1001000077020008770200087702000877020008EB
:1001100077020008770200087702000877020008DB
:1001200077020008770200087702000877020008CB
:1001300077020008770200087702000877020008BB
:1001400077020008770200087702000877020008AB
:10015000770200087702000877020008770200089B
:10016000770200087702000877020008770200088B
:10017000770200087702000877020008770200087B
:1001800077020008770200084B1C012B98BF7047CC
:100190002DE9F003911C9B08B1F80480B1F802909E
:1001A0000A8831F802CC8044814402448444D9F85E
:1001B0000070D8F800601568DCF80040C9F80060ED
:1001C000C8F80070CCF800501460D9F80470D8F862
:1001D00004605568DCF80440C9F80460C8F804708D
:1001E000CCF80450546008315B1ED5D1BDE8F00353
:1001F00070474B1C012B98BF70472DE9F003911CF1
:100200009B08B1F80480B1F802900A8831F802CC5A
:1002100000EB580800EB590900EB520200EB5C0CB4
:10022000D9F80070D8F800601568DCF80040C9F80B
:100230000060C8F80070CCF80050146008315B1EF4
:10024000DFD1BDE8F0037047DFF80CD000F018FFF5
:100250000048004745240008A014002006488047B5
:1002600006480047FEE7FEE7FEE7FEE7FEE7FEE79B
:10027000FEE7FEE7FEE7FEE77D1F000849020008F3
:100280009FED3D0A5FEA920C57D000BFD0ED000A07
:1002900090ED011A0B1D60EEA00A083041EE010A34
:1002A000F5EEC00AF1EE10FAC6BFB1EEE01A81ED2C
:1002B000001A81ED000AD0ED000A90ED011A191D17
:1002C00060EEA00A083041EE010AF5EEC00AF1EE38
:1002D00010FAC6BFB1EEE01A83ED001A83ED000AF2
:1002E000D0ED000A90ED011A0B1D60EEA00A083057
:1002F00041EE010AF5EEC00AF1EE10FAC6BFB1EE0A
:10030000E01A81ED001A81ED000A90ED001AD0ED9F
:10031000010A191D21EE011A083000EEA01AB5EEEF
:10032000C01AF1EE10FAC6BFF1EEC10AC3ED000A21
:1003300083ED000ABCF1010CA8D112F0030208BF42
:10034000704700BFD0ED000A90ED011A0B4660EE39
:10035000A00A091D083041EE010AF5EEC00AF1EECF
:1003600010FAC6BFB1EEE01A83ED001A83ED000A61
:10037000521EE7D170470000000000002DE9F04157
:1003800006462DED028B8C460088736801EB8004D5
:100390004508274601EB850004EB85025FEA9508D6
:1003A0007DD000BFD1ED003AD4ED001A91ED012AC5
:1003B00094ED013A73EEA16A91ED024A91ED031AB0
:1003C000D4ED022AD4ED035A90ED008A90ED017A23
:1003D00090ED020A90ED036A92ED005AD2ED014AC7
:1003E000D2ED027AD2ED030AC1ED006A72EE036A21
:1003F00073EEE13A74EEC71AC1ED016A74EE226A37
:1004000074EE622A37EEC04AC1ED026A71EE256AC7
:10041000C1ED036A72EE436A31EE652A38EE051AC1
:1004200035EE483A80ED001A37EE241A80ED011AB5
:1004300030EE271A80ED021A36EE201A80ED031AEC
:1004400030EEC61A93ED000AD3ED010A63EE804A3E
:1004500026EEA05A66EE805A63EEA03A74EE854A04
:1004600075EEE33AC4ED004A63EE204AC4ED013A6A
:1004700061EE803A61EEA00A23EE000A74EEE31A00
:1004800030EE800AC2ED001A82ED010A93ED020AF5
:10049000D3ED030A62EE803A22EE203A00E024E037
:1004A00062EEA01A22EE002A73EE832A1030103179
:1004B00072EE611AC4ED022A24EE202AC4ED031A5A
:1004C00061EE001A61EE200A24EE000A103332EECB
:1004D000611A103430EE800A82ED021A82ED030AAE
:1004E0001032B8F101087FF45DAF2946022360465F
:1004F000726800F041FB72682946BDEC028B3846F9
:10050000BDE8F041022300F037BB2DE9F34F2DED9C
:10051000048B87B00B980088470801EB870000EB3D
:10052000870606EB8705CDE90056DDF82C80A5F19E
:10053000040C0CEB8703CDE902014FEA5709D8F808
:1005400004800427CDE90497D1ED000A96ED000A56
:1005500090ED011A95ED013A70EE802A70EEC03AE6
:10056000D1ED010A96ED010A041F321F30EE802AF8
:1005700070EEC01A31EE230AD0ED000A32EE415A75
:1005800033EEC11A30EE434A71EEE04A95ED000AAF
:1005900070EEA11A35EE435A74EE805A72EEE04ABC
:1005A00070EEA20A71EEC01A31EE031A74EEC04A60
:1005B00030EE800A062708F1080A81ED000A90ED66
:1005C000010AD5ED010A08F1100B30EE020A08F11C
:1005D000180830EE200A81ED010A80ED004AC0EDD6
:1005E000015AC6ED004A86ED015A85ED001AC5EDA7
:1005F000011ADDF810900830083108350836A9F1E5
:1006000002095FEA590900F0078100BFD1ED000A35
:1006100096ED000AD0ED011AD5ED014A30EE802AA0
:1006200030EEC05AD1ED010A96ED010A70EE802A33
:1006300030EEC01A31EE850AD5ED000A30EE644A7C
:1006400090ED000A31EE403A30EE011A73EE205A76
:1006500032EE403A30EE020A31EE601A73EE603A42
:1006600030EE200A32EEE13A75EE611A81ED000AB1
:1006700090ED010AD5ED010A33EE643A30EE220A1C
:1006800071EEA41A30EE200A81ED010AD4ED002AA1
:10069000DCED004A54ED010A1CED010A32EEA47AA9
:1006A00032EEE49A72EEE42A52ED018A70EE807A1C
:1006B00030EEC02A72EEE82AD2ED000A93ED000A6D
:1006C00013ED018A30EEC05A72EE886A77EEE82A9E
:1006D00035EE026A32EEC85A77EE602A72EEC04AF0
:1006E00070EEC02A70EE870A72EEC22A30EE800ADF
:1006F00038EE682A84ED000A12ED010A53ED010A72
:1007000032EE492A30EE270A30EE200A04ED010AC3
:100710009AED000ADAED010A64EE007A25EEA07A7D
:1007200065EE805A24EE204A37EE877A35EEC44AC9
:1007300080ED007A80ED014A26EEA04A66EE005A6E
:1007400066EE200A26EE800A083034EE654A08314B
:1007500030EE800A82ED004A083C02ED010A9BED72
:10076000000ADBED010ADDF814E023EE804A63EEB7
:10077000205A23EE003A63EEA03A083A34EE254AB6
:100780000BEB8E0B33EE633A86ED004A0AF1080A52
:1007900086ED013AB1EE643A083663EE003A25EE92
:1007A000203A25EE000A64EEA00A33EEC33A30EE9A
:1007B000C00A8CED003A0CED010A98ED000AD8ED64
:1007C000010A08EB870861EE803A21EE203A21EE1B
:1007D000001A61EEA01AACF1080C33EE833A31EE48
:1007E000611A85ED003A62EE801A85ED011A22EE5B
:1007F000201A62EEA00A22EE000A083531EE611AD4
:1008000030EE800A83ED001A03ED010A083BB9F1CE
:1008100001097FF4FBAE00BFD1ED000A96ED000A9E
:1008200091ED011AD0ED015A30EE802A70EEC00A27
:1008300096ED010A95ED015A042371EE001A71EE4E
:10084000404A35EEA00A90ED001A31EEE54A70EE0E
:10085000E50A30EE453A95ED000A34EE454A30EEB1
:10086000855A74EEC12A72EE413A71EE240A31EED5
:10087000021A72EE802A73EEC03A70EEC00A31EEB0
:10088000000A81ED000A90ED010A95ED011A30EEA3
:10089000210A30EE010A81ED010A9AED000A9AED73
:1008A000011A63EE001A22EE812A22EE800A23EE5C
:1008B000011A71EE821A30EE410AC0ED001A80ED85
:1008C000010A9BED000A9BED011A63EE801A24EEEB
:1008D000012A24EE000A23EE811A71EE821A30EE0C
:1008E000410AC6ED001A86ED010A98ED010A98ED5D
:1008F000001A60EE801A25EE012A60EE810A25EECC
:10090000000A32EE211A30EEC00A85ED001A85ED9C
:10091000010A0B984268DDE9030100F02DF90B98FC
:10092000042304994268029800F026F90B980423E6
:1009300004994268019800F01FF90B980499042368
:100940004268009807B0BDEC048B02B0BDE8F04FE0
:1009500000F012B92DE9F0410488984617460D467B
:100960000646012A20D1281DF4B1A0F1080114F097
:10097000010F06D091ED020AB1EE400A81ED020AA4
:1009800008315FEA540C0FD091ED020AB1EE400A33
:1009900081ED020A91ED040AB1EE400A81ED040AEC
:1009A0001031BCF1010CEFD1B4F5807F1BD008DC15
:1009B000102C13D0202C16D0402C19D0802C0DD008
:1009C0001CE0B4F5007F13D0B4F5806F06D0B4F509
:1009D000006F08D0B4F5805F0AD00FE0294630469A
:1009E000FFF7CCFC0AE029463046FFF78EFD05E014
:1009F000214601232846726800F0BEF8B8F1000FC6
:100A000004D0B1892846B268FFF7BEFB012F18BF9A
:100A1000BDE8F08100EE104AB7EE001A002CF8EEA7
:100A2000400A81EE200A08BFBDE8F081A5F1080068
:100A300014F0010F0ED0D0ED020A60EE800AC0ED76
:100A4000020AD0ED030AF1EE600A60EE800AC0ED02
:100A5000030A0830610808BFBDE8F081D0ED020A42
:100A600060EE800AC0ED020AD0ED030AF1EE600AE2
:100A700060EE800AC0ED030AD0ED040A60EE800A41
:100A8000C0ED040AD0ED050AF1EE600A60EE800ABE
:100A9000C0ED050A1030491EE0D1BDE8F08100002C
:100AA00070B44FF0000CB0EC010A4E1E6446B5085D
:100AB00031D000BFD0ED000A90ED011A0830B4EE3D
:100AC000E00AF1EE10FA3CBFB0EE600A0CF101044E
:100AD000F0EC010AB4EEC10AF1EE10FA3CBFB0EE40
:100AE000410A0CF10204B0EC011AB4EEE00AF1EE96
:100AF00010FA3CBFB0EE600A0CF10304B4EEC10A78
:100B0000F1EE10FA3CBFB0EE410A0CF104046D1E88
:100B10000CF1040CCED106F0030C5FEA0C0617D0E2
:100B2000B6F1004F19D2002EC8BF002510DD00BF5E
:100B3000D0ED000AF4EEC00AF1EE10FA04DD4C1913
:100B4000B0EE600AA4EB0C04001D6D1C761EEFD104
:100B500082ED000A1C6070BC7047F0EC010AB4EE34
:100B6000E00AF1EE10FA3CBFB0EE600AA1EB0C0413
:100B7000BCF1010CF1D1EBE72DE9FF4F2DED108B0E
:100B800082B09FEDFEFA0B461C46DB084FF0000CCE
:100B90000CEB030505EB030808EB030909EB03065F
:100BA00006EB030A00EBCC0700EBC60697ED001A34
:100BB000D6ED000A0AEB030B00EBC50500EBCA0AF1
:100BC00031EE200A71EE601A95ED002ADAED000A86
:100BD0000BEB030E00EBC80832EE201A00EBCB0B38
:100BE00032EE602AD8ED002ADBED000A00EBC909DD
:100BF00000EBCE0E99ED003A9EED004A72EEA03A5F
:100C000072EEE02A73EE040A33EE443A70EE636A41
:100C100070EE233A31EE600A71EE200A33EEA01A2C
:100C200073EEE00A87ED001AC6ED000A97ED011A8F
:100C3000D6ED010AD5ED013A98ED014A31EE206A70
:100C400071EE600A9AED011A99ED015A73EE814A2C
:100C500073EEC13A9BED011A34EE017A34EE411A7B
:100C60009EED014A75EE045A35EE444A36EE475A77
:100C700036EE076A34EEE57A74EEA54A76EE245A2B
:100C800076EE644AC7ED015AC6ED014A76EE874A10
:100C9000C8ED004A76EEC74ACBED004A75EE404AF1
:100CA00035EE000AC8ED014A8BED010A32EE430A27
:100CB00032EE032A20EE0F0A62EE0F4A33EEC42A08
:100CC000A4448C4522EE0F3A33EE842A30EEC34A18
:100CD00062EE0F3A30EE833A31EEC02A31EE800AEE
:100CE00071EE630A31EE231A72EEE41A72EEA42A50
:100CF00070EE013A30EE410AC5ED003A8EED000A81
:100D000032EE200A8AED000A32EE600A89ED000A0E
:100D100033EE620A85ED010A33EE220A8EED010AF6
:100D200034EE610A8AED010A34EE210A89ED010AE6
:100D3000FFF42EAF082B3FBF02B0BDEC108B04B008
:100D4000BDE8F08F4FF0000CCDF804C04FF0010C5F
:100D5000CDF800C0DDF804C0159DAC444FEA8C0509
:100D600005EB0C07CDF804C007EB0C094FEA4C0863
:100D700008EB0C0609EB0C0A02EBCC0C02EBC808E2
:100D800002EBC60602EBC50502EBC70702EBC90979
:100D900002EBCA0A9CED00DA9CED018AD8ED00CA8C
:100DA00096ED00CAD5ED00BA97ED00BAD9ED00AACC
:100DB000DAED008AD8ED017A96ED01AA95ED017A77
:100DC000D7ED016A99ED016ADAED019ADDF800C00C
:100DD0000CEB0307FD1805EB030A0AEB030808EB0D
:100DE000030606EB030B00EBCC0900EBC808D9EDBA
:100DF000000A98ED000A00EBC70700EBC606D7ED26
:100E0000001A96ED001A70EE803A0BEB030E70EEAE
:100E1000C00A31EE810A00EBC50500EBCB0B31EEC9
:100E2000C11AD5ED001A9BED002A00EBCA0A00EBAF
:100E3000CE0E31EE824A71EEC21A9AED002ADEED34
:100E4000002A32EE223A32EE622A73EEC42A73EEA0
:100E5000843A30EE435A30EE030A33EE803A73EEB2
:100E6000C0DA89ED003A99ED010A98ED013AD7ED23
:100E7000013A95ED014A70EE03EA30EE433A96ED01
:100E8000010A9AED01EADEED014A33EE809A73EE33
:100E9000C03A9BED010A74EE005A34EE404A3EEE31
:100EA000240A7EEE644A3EEEE5EA7EEEA55A79EE2D
:100EB00040EA39EE009A32EEAE0A72EEEE2A75EE94
:100EC00089EA35EEC99A7EEE455AC9ED01EA3EEE51
:100ED000055A2BEEADEA67EE09EA2BEE899A67EE2A
:100EE0002DDA3EEE2EEA39EE6D9A88ED00EA67EED5
:100EF000A5DA88ED019A2CEE809A6CEEA55A27EEC1
:100F0000800A39EE2D9A35EEC00A85ED009A66EE1C
:100F1000055A85ED010A2AEEA20A2AEE855A66EEE6
:100F2000222A30EE250A8BED000A35EE620A73EEB6
:100F3000A42A8BED010A31EE420A31EE021A33EE99
:100F4000E42A62EE8F3A20EE0F0A21EE0F1A22EE0B
:100F50000F2A70EEC02A30EE800A71EEC10A71EEDF
:100F6000811A33EE421A33EE022A34EE633A34EE3B
:100F7000234A70EE043A30EE444A01E0F304353F70
:100F800072EE834A72EEC32A32EE613A32EE210AE1
:100F900071EE601A71EE200A2DEE232A28EE031A54
:100FA0002DEE033A68EE233AA44432EE011A28EEFD
:100FB000842A8C4587ED001A33EE631A29EE843AB1
:100FC00087ED011A29EE801A28EE800A32EE011A06
:100FD00030EE430A26EEA42A8EED001A8EED010AA9
:100FE0002BEE240A26EEA11A6BEE211A30EE010A2E
:100FF0002CEE221A86ED000A31EEC20A6AEE221A9F
:1010000086ED010A2AEE200A6CEE200A31EE000A73
:101010008AED000A30EEE10A8AED010AFFF4D8AE4B
:10102000DDF800C00CF1010CCDF800C063453FF6BF
:1010300091AEDDF854C04FF6FF7404EACC0CCDF845
:1010400054C0072B3FF6A0AD02B0BDEC108B04B02E
:10105000BDE8F08F30B50B46014600202022012468
:1010600009E021FA02F59D4205D303FA02F5491B76
:1010700004FA02F52844151EA2F10102F1DC30BD8C
:10108000064C074D06E0E06840F0010394E80700D5
:1010900098471034AC42F6D3FFF7DAF8283100084D
:1010A0004831000800220A12D3430360704721B17F
:1010B000826842F00102826003E0826822F001024D
:1010C000826070470021084A1168084A1140D0E93F
:1010D00000231A4383681A43C3681A431143044A1E
:1010E000C2F804137047000004230140E030FCFF05
:1010F000002001400146C86C80B2704770B50246BE
:101100000020002300240B12556801268E4005EABA
:10111000060415681D4015B10CB1012000E0002047
:1011200070BD000010B540F205211C48FFF7E6FF36
:1011300001282CD11A480088FF2803D10021174824
:10114000FFF7B5FF1548FFF7D5FF00EE100AB8EE20
:10115000400ADFED140A20EE200ADFED130A80EECC
:10116000201A0F480088114901EBC00080ED001AD9
:101170009FED0F0A0A4800884000401C01EB8000E8
:1011800080ED000A06480088401C0549088040F2AE
:1011900005210248FFF786FF10BD00000020014036
:1011A0001000002033335340000080452000002011
:1011B0000000000010B50B460021D9B2012404FA4A
:1011C00001F11AB144680C43446002E044688C4366
:1011D000446010BD30B50246002000235068104C1A
:1011E00020400D790C6844EA052420435060906843
:1011F0000C4C2040D1E903542C438D682C434D798D
:1012000044EA450420439060D06A20F470000C7DCD
:10121000641EE4B2234340EA0350D06230BD0000B4
:10122000FFFEFFFCFDF7FFC0F0B504460D460020B1
:101230000021092D11DDE068A5F10A0606EB46073D
:10124000072606FA07F18843A5F10A0606EB4606CB
:1012500003FA06F10843E0600CE0206905EB45075E
:10126000072606FA07F1884305EB450603FA06F15F
:1012700008432061072A0FDA606B561E06EB8607CB
:101280001F2606FA07F18843561E06EB860605FA66
:1012900006F10843606322E00D2A0FDA206BD61FA7
:1012A00006EB86071F2606FA07F18843D61F06EBD2
:1012B000860605FA06F10843206310E0E06AA2F111
:1012C0000D0606EB86071F2606FA07F18843A2F1F2
:1012D0000D0606EB860605FA06F10843E062F0BD4E
:1012E000816841F080418160704700210160017197
:1012F00041718160C160016101210175704700BFCA
:10130000FEE7000039B1084A1268012383401A43FE
:10131000054B1A6006E0044A1268012383409A4391
:10132000014B1A60704700000074004000B587B0A0
:101330000121084600F06CFC0121480700F078FC10
:101340001020059003208DF8180000208DF81B0058
:1013500003208DF8190000208DF81A0005A9134804
:1013600000F01AF92020059005A9104800F014F9A2
:10137000242001900020029004904FF430600390EC
:1013800001A9002000F060F801A9102000F05CF82D
:1013900001210020FFF7B6FF01211020FFF7B2FF67
:1013A0000121002000F004F807B000BD0000024059
:1013B00041B1094A12684FF4805383401A43064BE7
:1013C0001A6007E0044A12684FF4805383409A433E
:1013D000014B1A60704700000074004000B58FB0E8
:1013E0000121480500F014FC4FF0606000901348A4
:1013F0000190134802904020039020200490002088
:1014000005904FF48060069080000790800008905F
:101410008011099040020A9000200B9003200C904C
:1014200000200D900E906946064800F069F80121F1
:10143000044800F059F80FB000BD000020740040CF
:10144000201000208860024030B5002200230A4CA2
:10145000226840F6FE748440A243D1E900452C4343
:101460008D682C43CD6844EA050303FA00F4224357
:10147000014C226030BD00000074004010B5002413
:10148000FFF754FF00F014F800BF08E0064830F8FA
:10149000140000EB0040054941F82400641C202C96
:1014A000F4D3FFF79BFF10BD662500082010002035
:1014B0000EB50121084600F0BBFB0E200190002074
:1014C000ADF80000ADF80800ADF8020069464FF035
:1014D000804000F09DFD2021480600F08FFD012195
:1014E000880700F07FFD0EBD21B1026842F00102C5
:1014F000026003E0026822F001020260704700000F
:1015000010B500220268134B1A40CC680B682343C5
:101510004C6923438C692343CC6923430C6A2343DE
:101520004C6A23438C6A23434C6B23438C6B2343C9
:101530001A430260426922F00702D1E90B342343C7
:101540001A4342610B6943604B6883608B68C360D8
:1015500010BD00003F801CF07047000070B50446CD
:101560000C4800F0DFFC002508E000BF4FF0E02051
:10157000006900F480300028F8D06D1CA542F4D337
:101580004FF0E020006920F001004FF0E0210861F9
:1015900070BD000040900200F0B50A460021002313
:1015A000002400BF3DE0012505FA01F3156805EAB6
:1015B00003049C4234D105684F000326BE40B54366
:1015C000056015794E00B54006683543056015790C
:1015D000012D02D01579022D16D185684F00032602
:1015E000BE40B543856055794E00B54086683543A9
:1015F0008560456801268E40B5434560456896790B
:101600008E40B6B235434560C5684F000326BE40E4
:10161000B543C560D5794E00B540C6683543C56051
:10162000491C1029BFD3F0BDF0B5002300244D079D
:10163000ED0E02FA05F3CE1000F1200555F8265004
:101640004E07F70E0F26BE40B543CF1000F120061F
:1016500046F82750CE1000F1200555F8265045EAEF
:101660000304CE1000F1200545F82640F0BD00BF70
:10167000FEE721B1028842F48062028004E0028821
:101680004FF6FF331A400280704770B502460024BF
:10169000002500230020958A138B1B0445EA0306CE
:1016A00026F07F4404EA01068E4201D1012000E0C9
:1016B000002070BD21B1028842F00102028004E0E6
:1016C00002884FF6FE731A400280704770B50446D8
:1016D0000D460121364800F0B1F84FF480503549ED
:1016E000086009E033490868411E324A116018B9A0
:1016F000002000F05FF970BD2F492D48FFF7C5FFAE
:101700000028EFD02D4801780022294800F048F940
:101710004FF480502749086009E026490868411EB7
:10172000244A116018B9012000F044F9E3E7244984
:101730001F48FFF7AAFF0028EFD029461C4800F0F9
:1017400037F94FF480501B49086009E019490868CF
:10175000411E184A116018B9022000F02BF9CAE79F
:101760001749891C1248FFF790FF0028EED0217816
:101770000F4800F01DF94FF480500E49086009E051
:101780000C490868411E0B4A116018B9032000F08B
:1017900011F9B0E70A49891C0548FFF776FF0028D0
:1017A000EED00121024800F055F80120A3E7000027
:1017B0000054004018000020010003001400002025
:1017C0008200070010B500F009F800F0C3F8782097
:1017D0000149088010BD0000140000201CB5012143
:1017E000480500F025FA0121022000F011FA042238
:1017F00008211148FFF718FF042209210E48FFF7BE
:1018000013FF4FF48070009002208DF804008DF8D3
:10181000050001208DF8060000208DF807006946BC
:101820000548FFF7B9FE4FF4007000906946024882
:10183000FFF7B2FE1CBD00000004024021B1028887
:1018400042F48072028004E002884FF6FF631A407F
:101850000280704721B1028842F40072028004E0E5
:1018600002884FF6FF531A40028070472DE9FF4768
:1018700004460D460026B1460427DFF8CC80A68832
:101880004FF6C0700640684600F0F2F9DDF80880B7
:101890002E48B8FBF0F01FFA80F946EA0906A68048
:1018A00020884FF6FE7108402080002628492868CD
:1018B00088420CD828684000B8FBF0F087B2042FAB
:1018C00000DA04273E4309F10100208427E0E8887C
:1018D0004BF6FF71884206D1286800EB4000B8FB48
:1018E000F0F087B209E0286800EBC00101EB0010BE
:1018F000B8FBF0F087B247F48047C7F30B0008B994
:1019000047F0010747F4004006434FF4967009FB87
:1019100000F04FF47A7190FBF1F0401C2084A68314
:10192000208840F00100208026884FF6F5300640E0
:10193000A8886989084306432680A889298908431D
:101940002081BDE8FF87000000127A0040420F00AE
:10195000A08601001FB50020ADF804004BF6FF7013
:10196000ADF806000A20ADF808004FF48060ADF82D
:101970000A000001ADF80C000748009069460748CE
:10198000FFF774FF01210548FFF794FE012103488A
:10199000FFF76FFE1FBD0000801A060000540040D4
:1019A00012B141F0010101E001F0FE010182704736
:1019B0000182704710B50446214602A000F066FC83
:1019C000002010BD3C3C2D454550524F4D2D4552F9
:1019D000524F522D3E3E2049324320B5C8B4FDB38C
:1019E000ACCAB1216572726F72436F6465203D208D
:1019F00025640A0000BFFEE77047000070B50021B3
:101A000000230F22C4781CB3174C246804F4E0644C
:101A1000C4F5E064C4F30721C1F10404E3B20A4150
:101A200044789C40E1B28478144021430C07210E95
:101A30000E4C05786155047804F01F050124AC4074
:101A400005786D11AD0005F1E025C5F8004109E00C
:101A5000047804F01F050124AC40054D067876118A
:101A600045F8264070BD00000CED00E000E400E009
:101A700080E100E002490143024A11607047000022
:101A80000000FA050CED00E070B500240CE0002524
:101A900006E00020074901EBC4114855681CC5B297
:101AA000802DF6DB601CC4B2082CF0DB00F0D4FB08
:101AB00070BD0000200C00202DE9F04706460C46C2
:101AC0007F2E01DC3F2C01DDBDE8F0872046E117C9
:101AD00004EB5171C1F3C707C7F1070000F0FF081D
:101AE0002046E11704EB5171C910A4EBC101C1F10B
:101AF000070101F0FF09FF2000FA09F000F0FF0ADA
:101B00003146404600F070F8504600F09FFB00253B
:101B10000AE0C5F10701C8B2314600F065F8FF20C0
:101B200000F094FB681C85B2BD42F2DB00BFCBE73E
:101B300010B5FFF747FE4FF47A70FFF70FFDAE20A8
:101B400000F07EFB202000F07BFB102000F078FBF3
:101B5000B02000F075FBC82000F072FB002000F000
:101B60006FFB102000F06CFB402000F069FB81202F
:101B700000F066FBFF2000F063FBA12000F060FB9B
:101B8000A62000F05DFBA82000F05AFB3F2000F0EB
:101B900057FBA42000F054FBD32000F051FB0020A1
:101BA00000F04EFBD52000F04BFBF02000F048FB8E
:101BB000D92000F045FB222000F042FBDA2000F0A3
:101BC0003FFB122000F03CFBDB2000F039FB202023
:101BD00000F036FB8D2000F033FB142000F030FBCA
:101BE000AF2000F02DFB10BD70B505460C4605F189
:101BF000B001C8B200F024FB04F00F0000F020FB9D
:101C0000102141EA141000F01BFB70BD704700006A
:101C100029B1064A12680243044B1A6004E0034AE1
:101C200012688243014B1A6070470000303802404E
:101C300029B1064A12680243044B1A6004E0034AC1
:101C400012688243014B1A6070470000403802401E
:101C500029B1064A12680243044B1A6004E0034AA1
:101C600012688243014B1A607047000044380240FA
:101C7000F0B5002100220024022500260223324F65
:101C80003F6807F00C0121B1042905D0082937D19C
:101C900005E02E4F076036E02D4F076033E02A4FF6
:101CA0003F1F3F68C7F38056274F3F1F3F6807F02D
:101CB0003F036EB1264FB7FBF3F7DFF88CC0ACF1F2
:101CC000040CDCF800C0CCF3881C07FB0CF40CE01F
:101CD0001E4FB7FBF3F7DFF870C0ACF1040CDCF873
:101CE00000C0CCF3881C07FB0CF4174F3F1F3F6864
:101CF000C7F301477F1C7D00B4FBF5F7076002E0E6
:101D0000124F076000BF00BF0F4F3F6807F0F001A0
:101D10000909104F7A5C0768D74047600A4F3F684F
:101D200007F4E051890A0B4F7A5C4768D740876017
:101D3000054F3F6807F46041490B064F7A5C4768DE
:101D4000D740C760F0BD0000083802400024F4000E
:101D500000127A00000000201CB501210220FFF7CC
:101D600057FF0120009003208DF8040000208DF81B
:101D7000070069460148FFF70FFC1CBD0004024044
:101D800000B58BB001210802FFF762FF002001902F
:101D90004FF480300290002003904FF47060049064
:101DA00001A8FFF78FF905A8FFF79FFA002005901B
:101DB0008DF8180001208DF8190000200790089078
:101DC000099001208DF8280005A90C48FFF702FAB8
:101DD0000723012208210948FFF726FA012240F2D1
:101DE00005210648FFF7E6F901210448FFF75FF9EE
:101DF0000248FFF775FA0BB000BD0000002001405B
:101E000008B54FF4C060FFF735FE12208DF80000D2
:101E100001208DF801008DF802008DF8030068465E
:101E2000FFF7ECFD08BD10B5FFF796FFFFF7A8FF21
:101E3000FFF7E6FF10BD70470CB500200190009041
:101E40003448006840F480303249086000BF3148AF
:101E5000006800F4003000900198401C0190009848
:101E600018B90198B0F5A04FF1D12A48006800F4E4
:101E7000003010B10120009001E000200090009897
:101E8000012846D123484030006840F08050214965
:101E9000403108602048006840F440401E49086016
:101EA0001C48083000681B49083108600846006873
:101EB00040F4004008600846006840F4A050086004
:101EC0001648091F0860081F006840F08070091F4D
:101ED000086000BF0F48006800F000700028F9D0CB
:101EE00040F205700E4908600A480830006820F08A
:101EF00003000849083108600846006840F0020005
:101F0000086000BF03480830006800F00C00082893
:101F1000F8D10CBD00380240007000400854400762
:101F2000003C024030B50146481EB0F1807F01D32D
:101F3000012030BD481E4FF0E022506150170F22A3
:101F4000002807DA13071D0E094B00F00F04241FA9
:101F50001D5503E013071C0E064B1C5400BF002048
:101F60004FF0E0229061072010610020E1E70000BF
:101F700018ED00E000E400E07047000010B51548DF
:101F8000006840F47000134908601348006840F08E
:101F900001001149086000200F49083108600E480F
:101FA00000680E4908400C4908600D48091D08608A
:101FB000081F006820F48020091F086000200649DF
:101FC0000C310860FFF738FF4FF00060014980399D
:101FD000086010BD88ED00E000380240FFFFF6FE0B
:101FE0001030002421B1028842F00102028004E096
:101FF00002884FF6FE731A400280704782884FF6BF
:102000008F731A40828082880A4382807047000062
:1020100000220288184B98420ED0184B98420BD0E1
:10202000B0F1804F08D0164B984205D0154B98421E
:1020300002D0154B984204D14FF68F731A404B884B
:102040001A43124B984207D0114B984204D04FF6D6
:10205000FF431A400B891A4302804B68C3620B8806
:102060000385054B984202D0044B984201D18B7AEC
:102070000386012383827047000001400004014071
:102080000004004000080040000C00400010004028
:102090000014004021B1828942F40052828104E0A0
:1020A00082894DF6FF731A408281704702460020F4
:1020B000B1F5007F00D100BF13880B400BB10120A8
:1020C00000E00020704700002DE9FF4705460E465E
:1020D0000024A14600BFA046B08900B100BF2C8AF1
:1020E00024F44054F08804432C82AC8941F20C6003
:1020F0008443B08831890843718908430443AC8123
:10210000AC8A24F44074B0890443AC826846FFF77B
:10211000AFFD2048854202D01F48854202D1DDF83C
:102120000C9001E0DDF80890A88900F4004040B16F
:1021300009EBC90000EB091031684900B0FBF1F769
:1021400007E009EBC90000EB091031688900B0FB1A
:10215000F1F76420B7FBF0F004012009642101FBD2
:102160001078A88900F4004040B1322000EBC8008C
:10217000B0FBF1F000F00700044308E0322000EB70
:1021800008106421B0FBF1F000F00F0004432C8133
:10219000BDE8FF870010014000140140C1F30802B0
:1021A0008280704700B587B001210846FFF730FDF7
:1021B00001211020FFF74CFD00208DF81A000120AE
:1021C0008DF81B0002208DF819008DF81800000210
:1021D000059005A91748FFF7DFF902208DF81800D0
:1021E0004002059005A91348FFF7D6F907220A21F6
:1021F0001048FFF719FA072209210E48FFF714FAD1
:102200004FF4E13001900020ADF80800ADF80A006D
:10221000ADF80C00ADF810000C20ADF80E0001A9CF
:102220000548FFF751FF01210348FFF733FF07B0CF
:1022300000BD0000000002400010014000BFFEE7AA
:1022400001B500216846FFF741FA08BD01B54021FC
:102250006846FFF73BFA08BD70B5002411E0002185
:102260002046FFF7C1FC002507E0074901EBC41138
:10227000485DFFF7EBFF681CC5B2802DF5DB601CE5
:10228000C4B2082CEBDB70BD200C00200FB4054B52
:1022900010B503A9044A029800F018F810BC5DF8C4
:1022A00014FB0000212400081C00002002E008C8E4
:1022B000121F08C1002AFAD170477047002001E0C0
:1022C00001C1121F002AFBD1704700002DE9FF4F0A
:1022D00089B09B460446002506E025280BD05A46C7
:1022E0000B999047641C6D1C20780028F5D10DB027
:1022F0002846BDE8F08F0027B8460122474900E094
:10230000074314F8013F203B02FA03F00842F7D1DB
:1023100020782E2819D114F8010F47F004072A2835
:102320000ED06FF02F022078A0F1300109290CD8CF
:1023300008EB880102EB410100EB0108641CF2E7A5
:102340000A98641C50F8048B0A9020780028CED09C
:10235000642808D0692806D075281ED05A460B99E3
:1023600090476D1C58E00A994FF00A0901C90A917B
:10237000002802DA40422D2102E0390504D52B2144
:102380008DF82010012103E0F90704D02021F7E7A0
:102390008A4608AE0DE00021FAE70A994FF00A09D3
:1023A00001C90A91F7E74946FEF754FE303106F8B5
:1023B000011D0028F7D1ADEB060000F120097807D8
:1023C00001D44FF00108C84502DDA8EB090000E088
:1023D00000208046002706E008A85A46C05D0B99F9
:1023E00090476D1C7F1C5745F6DB04E030205A46B1
:1023F0000B9990476D1CB8F10001A8F10108F5DCBC
:1024000005E016F8010B5A460B9990476D1CB9F17F
:102410000001A9F10109F4DC641C65E70928010049
:1024200070B504460D46E1B20548FFF7B7FE00BFA0
:1024300080210348FFF73AFE0028F9D0204670BDFE
:10244000001001401CB59FED360A8DED010AFFF723
:102450006FFBFFF7A7FEFFF7E6FCFFF70FF8FFF7AC
:1024600013FB5BE02F480088B0F5807F41D101234A
:1024700000222D492D48FEF76DFA4FF480722C4949
:102480002948FDF7FDFE9FED260A294880ED000A48
:102490006B4601AA4FF48071FEF702FB9DED010A25
:1024A000F7EE000AB4EEE00AF1EE10FA17DB0024B2
:1024B00013E01F4800EB840090ED000ADFED1D0AD9
:1024C00020EE200ADDED010A80EE201A184800EB0C
:1024D000840080ED001A601C84B2802CE9DB0020AF
:1024E0001049088001211448FEF7E1FD1248FEF76B
:1024F000F7FE01240EE00E4A02EB840292ED000A80
:10250000BCEEC00A10EE102AD1B2E0B2FFF7D4FA46
:10251000601C84B2802CEEDB00F010F8A2E7000013
:10252000000000001000002020000020A825000866
:102530002008002000007C420020014070B50024EB
:102540000EE0E0B20021FFF74FFB002504E0002081
:10255000FFF77CFE681C85B27F2DF8DD601C84B21D
:10256000072CEEDD70BD00089C09280B920CCC0DE9
:10257000CA0E810FE80FFD0FBF0F2F0F540E360D3F
:10258000E20B650ACF0831079B051E04CA02AC01A5
:10259000D1004100030018007F00360134026E03B1
:1025A000D80464060008000000010000B8250008F7
:1025B000B82D0008B80100000000803F00000000B6
:1025C00043EC7F3FB00AC93C0FB17F3F2FFB483D32
:1025D0006D4E7F3F05A9963D6DC47E3F36BDC83D1B
:1025E00024137E3F73B2FA3DAC3A7D3F8340163EE2
:1025F000283B7C3FA2102F3EBE147B3FC2C5473E06
:102600009DC7793F135C603EF853783FCCCF783E4E
:1026100007BA763F938E883E0BFA743F31A0943E02
:102620004714733FE59AA03E0809713FD47CAC3E45
:102630009ED86E3F2A44B83E5E836C3F15EFC33E82
:10264000A7096A3FCA7BCF3ED86B673F80E8DA3E76
:1026500059AA643F7533E63E98C5613FEA5AF13E98
:1026600005BE5E3F275DFC3E1A945B3F3D9C033FE9
:102670005348583F9BF5083F31DB543FDA390E3F52
:102680003D4D513F2A68133F029F4D3FC07F183F89
:1026900012D1493FD17F1D3F03E4453F9967223F57
:1026A00070D8413F5636273FF9AE3D3F4AEB2B3FAE
:1026B0004268393FBB85303FF304353FF304353F73
:1026C000BB85303F4268393F4AEB2B3FF9AE3D3F77
:1026D0005636273F70D8413F9967223F03E4453F74
:1026E000D17F1D3F12D1493FC07F183F029F4D3F10
:1026F0002A68133F3D4D513FDA390E3F31DB543FDD
:102700009BF5083F5348583F3D9C033F1A945B3F5D
:10271000275DFC3E05BE5E3FEA5AF13E98C5613F2B
:102720007533E63E59AA643F80E8DA3ED86B673FCE
:10273000CA7BCF3EA7096A3F15EFC33E5E836C3F5D
:102740002A44B83E9ED86E3FD47CAC3E0809713F07
:10275000E59AA03E4714733F31A0943E0BFA743FB4
:10276000938E883E07BA763FCCCF783EF853783FB9
:10277000135C603E9DC7793FC2C5473EBE147B3F98
:10278000A2102F3E283B7C3F8340163EAC3A7D3F53
:1027900073B2FA3D24137E3F36BDC83D6DC47E3F03
:1027A00005A9963D6D4E7F3F2FFB483D0FB17F3F02
:1027B000B00AC93C43EC7F3F000000000000803FAE
:1027C000B00AC9BC43EC7F3F2FFB48BD0FB17F3F30
:1027D00005A996BD6D4E7F3F36BDC8BD6DC47E3F19
:1027E00073B2FABD24137E3F834016BEAC3A7D3FE0
:1027F000A2102FBE283B7C3FC2C547BEBE147B3F04
:10280000135C60BE9DC7793FCCCF78BEF853783F4C
:10281000938E88BE07BA763F31A094BE0BFA743F00
:10282000E59AA0BE4714733FD47CACBE0809713F43
:102830002A44B8BE9ED86E3F15EFC3BE5E836C3F80
:10284000CA7BCFBEA7096A3F80E8DABED86B673F74
:102850007533E6BE59AA643FEA5AF1BE98C5613F96
:10286000275DFCBE05BE5E3F3D9C03BF1A945B3FE7
:102870009BF508BF5348583FDA390EBF31DB543F50
:102880002A6813BF3D4D513FC07F18BF029F4D3F87
:10289000D17F1DBF12D1493F996722BF03E4453F55
:1028A000563627BF70D8413F4AEB2BBFF9AE3D3FAC
:1028B000BB8530BF4268393FF30435BFF304353F71
:1028C000426839BFBB85303FF9AE3DBF4AEB2B3F75
:1028D00070D841BF5636273F03E445BF9967223F72
:1028E00012D149BFD17F1D3F029F4DBFC07F183F0E
:1028F0003D4D51BF2A68133F31DB54BFDA390E3FDB
:10290000534858BF9BF5083F1A945BBF3D9C033F5B
:1029100005BE5EBF275DFC3E98C561BFEA5AF13E29
:1029200059AA64BF7533E63ED86B67BF80E8DA3ECC
:10293000A7096ABFCA7BCF3E5E836CBF15EFC33E5B
:102940009ED86EBF2A44B83E080971BFD47CAC3E05
:10295000471473BFE59AA03E0BFA74BF31A0943EB2
:1029600007BA76BF938E883EF85378BFCCCF783EB7
:102970009DC779BF135C603EBE147BBFC2C5473E96
:10298000283B7CBFA2102F3EAC3A7DBF8340163E51
:1029900024137EBF73B2FA3D6DC47EBF36BDC83D01
:1029A0006D4E7FBF05A9963D0FB17FBF2FFB483D00
:1029B00043EC7FBFB00AC93C000080BF00000000AC
:1029C00043EC7FBFB00AC9BC0FB17FBF2FFB48BD2E
:1029D0006D4E7FBF05A996BD6DC47EBF36BDC8BD17
:1029E00024137EBF73B2FABDAC3A7DBF834016BEDE
:1029F000283B7CBFA2102FBEBE147BBFC2C547BE02
:102A00009DC779BF135C60BEF85378BFCCCF78BE4A
:102A100007BA76BF938E88BE0BFA74BF31A094BEFE
:102A2000471473BFE59AA0BE080971BFD47CACBE41
:102A30009ED86EBF2A44B8BE5E836CBF15EFC3BE7E
:102A4000A7096ABFCA7BCFBED86B67BF80E8DABE72
:102A500059AA64BF7533E6BE98C561BFEA5AF1BE94
:102A600005BE5EBF275DFCBE1A945BBF3D9C03BFE5
:102A7000534858BF9BF508BF31DB54BFDA390EBF4E
:102A80003D4D51BF2A6813BF029F4DBFC07F18BF85
:102A900012D149BFD17F1DBF03E445BF996722BF53
:102AA00070D841BF563627BFF9AE3DBF4AEB2BBFAA
:102AB000426839BFBB8530BFF30435BFF30435BF6F
:102AC000BB8530BF426839BF4AEB2BBFF9AE3DBF73
:102AD000563627BF70D841BF996722BF03E445BF70
:102AE000D17F1DBF12D149BFC07F18BF029F4DBF0C
:102AF0002A6813BF3D4D51BFDA390EBF31DB54BFD9
:102B00009BF508BF534858BF3D9C03BF1A945BBF59
:102B1000275DFCBE05BE5EBFEA5AF1BE98C561BF27
:102B20007533E6BE59AA64BF80E8DABED86B67BFCA
:102B3000CA7BCFBEA7096ABF15EFC3BE5E836CBF59
:102B40002A44B8BE9ED86EBFD47CACBE080971BF03
:102B5000E59AA0BE471473BF31A094BE0BFA74BFB0
:102B6000938E88BE07BA76BFCCCF78BEF85378BFB5
:102B7000135C60BE9DC779BFC2C547BEBE147BBF94
:102B8000A2102FBE283B7CBF834016BEAC3A7DBF4F
:102B900073B2FABD24137EBF36BDC8BD6DC47EBFFF
:102BA00005A996BD6D4E7FBF2FFB48BD0FB17FBFFE
:102BB000B00AC9BC43EC7FBF00000080000080BFAA
:102BC000B00AC93C43EC7FBF2FFB483D0FB17FBF2C
:102BD00005A9963D6D4E7FBF36BDC83D6DC47EBF15
:102BE00073B2FA3D24137EBF8340163EAC3A7DBFDC
:102BF000A2102F3E283B7CBFC2C5473EBE147BBF00
:102C0000135C603E9DC779BFCCCF783EF85378BF48
:102C1000938E883E07BA76BF31A0943E0BFA74BFFC
:102C2000E59AA03E471473BFD47CAC3E080971BF3F
:102C30002A44B83E9ED86EBF15EFC33E5E836CBF7C
:102C4000CA7BCF3EA7096ABF80E8DA3ED86B67BF70
:102C50007533E63E59AA64BFEA5AF13E98C561BF92
:102C6000275DFC3E05BE5EBF3D9C033F1A945BBFE3
:102C70009BF5083F534858BFDA390E3F31DB54BF4C
:102C80002A68133F3D4D51BFC07F183F029F4DBF83
:102C9000D17F1D3F12D149BF9967223F03E445BF51
:102CA0005636273F70D841BF4AEB2B3FF9AE3DBFA8
:102CB000BB85303F426839BFF304353FF30435BF6D
:102CC0004268393FBB8530BFF9AE3D3F4AEB2BBF71
:102CD00070D8413F563627BF03E4453F996722BF6E
:102CE00012D1493FD17F1DBF029F4D3FC07F18BF0A
:102CF0003D4D513F2A6813BF31DB543FDA390EBFD7
:102D00005348583F9BF508BF1A945B3F3D9C03BF57
:102D100005BE5E3F275DFCBE98C5613FEA5AF1BE25
:102D200059AA643F7533E6BED86B673F80E8DABEC8
:102D3000A7096A3FCA7BCFBE5E836C3F15EFC3BE57
:102D40009ED86E3F2A44B8BE0809713FD47CACBE01
:102D50004714733FE59AA0BE0BFA743F31A094BEAE
:102D600007BA763F938E88BEF853783FCCCF78BEB3
:102D70009DC7793F135C60BEBE147B3FC2C547BE92
:102D8000283B7C3FA2102FBEAC3A7D3F834016BE4D
:102D900024137E3F73B2FABD6DC47E3F36BDC8BDFD
:102DA0006D4E7F3F05A996BD0FB17F3F2FFB48BDFC
:102DB00043EC7F3FB00AC9BC0800000210000004C9
:102DC00018000006200040002800400230004004A7
:102DD0003800400640008000480080025000800417
:102DE000580080066000C0006800C0027000C00487
:102DF0007800C006800000018800000390000005F4
:102E000098000007A0004001A8004003B000400562
:102E1000B8004007C0008001C8008003D0008005D2
:102E2000D8008007E000C001E800C003F000C00542
:102E3000F800C007000100020801080210010804A0
:102E400018010806200180022801480230014804C8
:102E500038014806400100034801880250018804F7
:102E600058018806600180036801C8027001C80427
:102E70007801C8068001080288010803900108054E
:102E800098010807A0018802A8014803B00148057D
:102E9000B8014807C0010803C8018803D0018805AC
:102EA000D8018807E0018803E801C803F001C805DC
:102EB000F801C80708021002000200041002100402
:102EC000180210062002800428025002300250042A
:102ED0003802500640020005480290025002900459
:102EE00058029006600280056802D0027002D00489
:102EF0007802D006800208048802100390021005B0
:102F000098021007A0028804A8025003B0025005DE
:102F1000B8025007C0020805C8029003D00290050D
:102F2000D8029007E0028805E802D003F002D0053D
:102F3000F802D00700030006080310061003180467
:102F4000180318062003800628039006300358044F
:102F5000380358064003000748031007500398043D
:102F60005803980660038007680390077003D8042D
:102F70007803D8068003080688031806900318050E
:102F800098031807A0038806A8039806B0035805FD
:102F9000B8035807C0030807C8031807D0039805EB
:102FA000D8039807E0038807E8039807F003D805DB
:102FB000F803D8070804800410042004180420062D
:102FC00028048005300460043804600640040006CC
:102FD000480488045004A0045804A00660041006A5
:102FE000680488057004E0047804E006880480061C
:102FF0009004200598042007A0040806A804800770
:10300000B0046005B8046007C0042006C804880640
:10301000D004A005D804A007E0041806E804880737
:10302000F004E005F804E007080520051005800518
:103030001805280628059005300588053805680616
:103040004005000748052007500580075805A806D9
:103050006005080768059805700588077805E80683
:103060008805900698052807A0052806A80590075A
:10307000B0052807B8056807C0051007C8059806F9
:10308000D0059007D805A807E0051807E8059807B8
:10309000F0059807F805E8071806300638067006A8
:1030A0004006000748068007500608075806B00685
:1030B0006006100768069007700618077806F00685
:1030C0008806A00698063007A806A007B00688075D
:1030D000B8067007C0062007C806A007D006280754
:1030E000D806B007E0063007E806A807F0069807FC
:1030F000F806F00748075007380798075007600799
:10310000580770076007C0076807D0077807F007FF
:103110007007E007B807F007A807B007D807F0075F
:10312000C807E007E807F007483100080000002062
:1031300020000000AC2200086831000820000020B8
:1031400080140000BC2200080000000001020304FB
:103150000102030406070809000000000000000047
:0831600000A0000000000000C7
:0400000508000249A4
:00000001FF
